:020000020000FC
:040000000C94260036
:100048000C945A0030E00EEF0AB90E94A40008E9A7
:100058000093C10007E60093C40008E20BB900E270
:100068000BB90E94960008E20BB900E20BB908E848
:100078000BB900E80BB90E94960008E00BB900E044
:100088000BB908EE0BB900EE0BB90E94960008E018
:100098000BB900E00BB908E60BB900E60BB90E94F2
:1000A80096000E94700078940C9458003395313172
:1000B80011F40E947C00313211F40E94700000910A
:1000C800C600402F502F407F5F70550F550F550FBA
:1000D800550F0E948700189508E00BB900E00BB98E
:1000E80008E10BB900E10BB930E00E9496000895D1
:1000F80008EA0BB900EA0BB908E80BB900E80BB934
:100108000E94960008950CE0040F0BB904E0040F58
:100118000BB90CE0050F0BB904E0050F0BB90E94F1
:100128009600089510E528EC00000000000000008B
:100138000000000000002A95B9F71A95A1F7089564
:100148000E9496000E9496000E9496000E949600C7
:100158000E9496000E9496000E9496000E949600B7
:0A0168000E9496000E949600089580
:00000001FF
