S010000050696E67706F6E672E73726563D2
S113000014C02EC02DC02CC02BC02AC029C028C0AB
S113001027C026C025C024C023C022C021C020C0C0
S11300201FC01EC01DC01CC01BC011241FBECFE5B5
S1130030D2E0DEBFCDBF10E0A0E6B0E0E0E6F6E03F
S113004002C005900D92A037B107D9F720E0A0E7D0
S1130050B0E001C01D92AD38B207E1F7EFD1FEC2A6
S1130060CFCFE4E8F0E08481958120813181280FAD
S1130070391F318320832830310558F091958195BB
S1130080910995838483880F991F820F931F91830D
S11300908083E4E8F0E02681378182819381820FB6
S11300A0931F93838283079709F04FC04091840084
S11300B0509185008091720090E04817590721F013
S11300C001964817590771F53195219531093093F7
S11300D08B0020938A0059D281709078992324F45C
S11300E001978E6F9F6F0196880F991F21E030E072
S11300F0A901481B590BCA01E4E8F0E04481558189
S1130100489F9001499F300D589F300D112435832D
S113011024838681978122813381820F931F938365
S1130120828313C0809170008F5F80937000E4E835
S1130130F0E083E090E091838083938382838FEF68
S11301409FEF9583848397838683209186003091E3
S113015087002115310509F04DC04091840050916C
S1130160850080917A0090E04817590721F00196A4
S11301704817590761F5E4E8F0E086819781919585
S11301808195910997838683280F391F33832283AE
S1130190FCD181709078992324F401978E6F9F6F1E
S11301A00196880F991F21E030E0A901481B590BE3
S11301B0CA01E4E8F0E044815581489F9001499FD9
S11301C0300D589F300D11243583248313C0809142
S11301D065008F5F80936500E4E8F0E084E090E0E0
S11301E0918380839383828381E090E097838683E5
S11301F095838483809165008A3020F48091700017
S11302008A3070F01092650010927000E2E7F0E01E
S113021086E0808387E08183EAE7F0E01082118240
S113022008958FEE82BBE0917000F0E0EA59FF4F31
S1130230808185BB89EF90E00197F1F700C0000051
S11302408FED82BBE0916500F0E0EA59FF4F8081B9
S113025085BB89EF90E00197F1F700C00000089595
S113026090B396FB992790F99093770080B3881FF9
S11302708827881F80937C00911109C02091710008
S1130280213029F420916400209520936400811189
S11302901CC020917D002130C1F420936400109291
S11302A07000E2E7F0E026E0208327E02183EAE71C
S11302B0F0E01082118210926500E4E8F0E023E09F
S11302C030E03183208333832283909371008093C1
S11302D07D00089530B331703093810020B322FB48
S11302E0222720F92093800090B3969591709093E3
S11302F0780080B383FB882780F9809382003111D2
S11303000EC040918C00413051F440917200642F32
S113031070E0615071091AF04150409372009111DC
S11303200EC040918300413051F4E2E7F0E0408197
S11303304F5F4083473018F046E04093720021112C
S11303400EC040917600413051F440917A00642F00
S113035070E0615071091AF0415040937A008111A4
S11303600EC040917900413051F4EAE7F0E0408159
S11303704F5F4083473018F046E040937A00309353
S11303808C002093760090938300809379000895E5
S113039010927F0010927E0048C081E090E002C07D
S11303A0880F991F2A95E2F7809588BB8091720087
S11303B090E020917E0030917F008217930731F006
S11303C001962817390721F040E003C040E801C036
S11303D040E880917A0090E02817390721F00196CF
S11303E02817390709F441608091840090918500B1
S11303F02817390751F481E090E00090860002C08C
S1130400880F991F0A94E2F7482B4BBB89EF90E0C1
S11304100197F1F700C0000080917E0090917F0069
S1130420019690937F0080937E0020917E0030910E
S11304307F00283031050CF4B0CF08958FEF8ABBCC
S11304401BBA87BB18BA84BB15BA80E381BB8FEC97
S113045082BB13BE12BE1CBE1FBC1EBC1DBC1CBC7A
S113046017BC16BC1BBC1ABC19BC18BC12BC15BCEE
S113047014BC13BC19BE15BE14BE1AB880E888B9E2
S113048010BE16B81DB816BEE2E7F0E086E0808321
S113049087E08183EAE7F0E010821182E4E8F0E08B
S11304A083E090E0918380839383828381E090E072
S11304B0958384839783868380916400811119C016
S11304C010927500109274000DC062DF03DFC8DE65
S11304D0A8DE809174009091750001969093750048
S11304E08093740080917400909175004E976CF322
S11304F0B8DD4EDFB5DE95DEDFCF8F929F92AF92EF
S1130500BF92CF92DF92EF92FF92CF93DF93EC01F1
S1130510688179818A819B816115710581059105C5
S113052021F464E279ED8BE597E02DE133EF41E0CE
S113053050E03AD049015A019B01AC01A7EAB1E469
S11305404FD06B017C01ACEEB4EFA501940154D003
S1130550DC01CB018C0D9D1DAE1DBF1DB7FF03C07B
S11305600197A109B04888839983AA83BB839F77A5
S1130570DF91CF91FF90EF90DF90CF90BF90AF903D
S11305809F908F900895B9DF089580E690E0B5DFDD
S11305900895A0E0B0E08093600090936100A09380
S11305A06200B09363000895052E97FB16F400943F
S11305B00FD057FD05D024D007FC02D046F408C064
S11305C050954095309521953F4F4F4F5F4F08957B
S11305D090958095709561957F4F8F4F9F4F0895AB
S11305E031D0A59F900DB49F900DA49F800D911DB7
S11305F011240895B7FFF4CFF3DF821B930B089502
S1130600A1E21A2EAA1BBB1BFD010DC0AA1FBB1F12
S1130610EE1FFF1FA217B307E407F50720F0A21B84
S1130620B30BE40BF50B661F771F881F991F1A94F1
S113063069F760957095809590959B01AC01BD011B
S1130640CF010895A29FB001B39FC001A39F01D021
S1130650B29F700D811D1124911D0895F894FFCF50
S11306600100000001093F065B4F666D7C077F6F48
S9030000FC
