:020000020000FC
:080000000C9422000C94730023
:040034000C946600C2
:100040000C9454000BEF0AB90FE007B903E005BDAB
:1000500001E000936E0006E006BD05E0009381001C
:1000600001E000936F0002EC0093850007EF00931E
:10007000840003E00093690001E00DBB552744278D
:1000800066270E944A000EEF302F0FE008B97894DF
:100090000C944800F1E0E4E0B1E0A0E00AE0159142
:1000A0001D930A95E1F7089514E01BB9331F34FF3F
:1000B000329533FF142F32FF152F31FF162F38B929
:1000C000A12F1C911BB916E016BD1895472F582F6C
:1000D000692F77278827992712EC1093850017EC52
:1000E00010938400189573957A3049F47727839597
:1000F0008A3029F4882793959A3009F4992711E0DA
:0E0100001CBB18957F0EB79FCEDDFD0FFFDFF5
:00000001FF
