:020000020000FC
:100000000C9402000DEF0AB902E004B90CE005B946
:1000100001E8009380000BE00093810000E0009372
:10002000880034E60E9481000E945B000E9452001A
:10003000552770E085E050E041E00E94700054E0F8
:10004000B1E0A0E06FE24D910E9470003AEF0E9493
:1000500081000E9447003AEF0E9481000E94470001
:10006000613228F450E048E10E94700054E06A9543
:1000700051F73AEF0E9481003AEF0E9481003AEF77
:100080000E9481003AEF0E9481000C941B007F3F88
:1000900011F01A9B780F703011F01B9B781B709336
:1000A00088000895F1E0E8E1B1E0A0E005910D934A
:1000B0000030E1F7089555275BB940E20E947700D0
:1000C00048E20E9470004CE00E94700046E00E94EE
:1000D000700041E00E94700042E00E9470000895AC
:1000E0000E94770042950E94770042950895042F60
:1000F000007F052B0BB95B9A34E10E9481005B986D
:10010000089510E128EC000000002A95E1F71A9507
:10011000C9F73A95B1F708954775746965727265C4
:100120007A204D6F72616C6573204F736361722C1E
:040130002047726191
:00000001FF
